:0F00000075304B753104753205901034E531932E
:0F000F009441FAE5309427FB9010347940E49344
:0F001E00B430028005F7A30980F4EA78407960D6
:10002D009010007D1AC0E093C3967008D0E09AF747
:0F003D0009088005D0E004DDECEAD532E67960F1
:0E004C007880753205901000EB9793F6090846
:0E005A00D532F7116D7532057880E6118F08EA
:0F006800D532F980FE74381182740F118274063C
:0F0077001182740111827480118222F590C2B53A
:0F008600C2B6D2B7119CC2B722F590D2B5C2B69E
:0F009500D2B7119CC2B722C000C001783279FFE8
:0900A400D9FED8FAD001D00022E7
:101000004142434445464748494A4B4C4D4E4F5058
:101010005152535455565758595A414243444546E4
:101020004748494A4B4C4D4E4F50515253545556D8
:0A1030005758595A4C414D4C5530A9
:00000001FF
