:100000007814753104753205744128F53090103438
:10001000E531939441FAE5309427FB901034794010
:0F002000E493B430028005F7A30980F4EA784036
:10002F0079609010007D1AC0E093C3967008D0E0FD
:0F003F009AF709088005D0E004DDECEAD532E637
:10004E0079607880753205901000EB9793F6090869
:0E005E00D532F711717532057880E6119308DE
:0F006C00D532F980FE74381186740F1186740630
:0F007B001186740111867480118622F590C2B52A
:0F008A00C2B6D2B711A0C2B722F590D2B5C2B696
:0F009900D2B711A0C2B722C000C001783279FFE0
:0900A800D9FED8FAD001D00022E3
:101000004142434445464748494A4B4C4D4E4F5058
:101010005152535455565758595A414243444546E4
:101020004748494A4B4C4D4E4F50515253545556D8
:0A1030005758595A544553544B3099
:00000001FF
