:03000000020100FA
:03000B0002023EB0
:0F01000075891175A8827F14C28DC28C758C3CD5
:0F010F00758AB0D28C31273149316C318F31B2C2
:0F011E0031D531F8511B80EE2260021422C28FBE
:0F012D00D291758DFC758B40D28E308FFDC291B3
:10013C00C28F758DFC758B40308FFD80DEB4010253
:0E014C001422C28FD291758DFC758BADD28EB0
:10015A00308FFDC291C28F758DFC758BAD308FFDCE
:0E016A0080DDB401021422C28FD291758DFC8B
:0F017800758B09D28E308FFDC291C28F758DFCB1
:0F018700758B09308FFD80DDB401021422C28F09
:0F019600D291758DFD758B34D28E308FFDC29155
:1001A500C28F758DFD758B34308FFD80DDB40102F6
:0E01B5001422C28FD291758DFD758B82D28E71
:1001C300308FFDC291C28F758DFD758B82308FFD8F
:0E01D30080DDB401021422C28FD291758DFD21
:0F01E100758BC8D28E308FFDC291C28F758DFD88
:0F01F000758BC8308FFD80DDB401021422C28FE1
:0F01FF00D291758DFE758B06D28E308FFDC29119
:10020E00C28F758DFE758B06308FFD80DDB40102B9
:0E021E001422C28FD291758DFE758B22D28E66
:10022C00308FFDC291C28F758DFE758B22308FFD84
:0F023C0080DDBF00037F1404C28DC28C758C3C23
:07024B00758AB0D28C1F324E
:00000001FF
