:060000000201000202549F
:03000B00020240AE
:0E01000075891175A883D2887F14C28DC28CB8
:10010E00758C3C758AB0D28C3129314B316E319160
:0F011E0031B431D731FA511D80EE226002142224
:0F012D00C28FD291758DFC758B40D28E308FFDB5
:0F013C00C291C28F758DFC758B40308FFD80DEB8
:0F014B00B401021422C28FD291758DFC758BAD59
:0F015A00D28E308FFDC291C28F758DFC758BAD2B
:0E016900308FFD80DDB401021422C28FD291CE
:0F017700758DFD758B09D28E308FFDC291C28FB1
:10018600758DFD758B09308FFD80DDB4010214225B
:0F019600C28FD291758DFD758B34D28E308FFD57
:0F01A500C291C28F758DFD758B34308FFD80DD5B
:0F01B400B401021422C28FD291758DFD758B821A
:0F01C300D28E308FFDC291C28F758DFD758B82EC
:0E01D200308FFD80DDB401021422C28FD29165
:0F01E000758DFD758BC8D28E308FFDC291C28F89
:1001EF00758DFD758BC8308FFD80DDB40102142233
:0F01FF00C28FD291758DFE758B06D28E308FFD1B
:0F020E00C291C28F758DFE758B06308FFD80DD1E
:0F021D00B401021422C28FD291758DFE758B220F
:0F022C00D28E308FFDC291C28F758DFE758B22E1
:0F023B00308FFD80DDBF00037F1404C28DC28CA5
:10024A00758C3C758AB0D28C1F323089FDC28932D6
:00000001FF
